{
  "_format": "hh-sol-artifact-1",
  "contractName": "TheCryptoPurgePortal",
  "sourceName": "contracts/Portal.sol",
  "abi": [
    {
      "inputs": [],
      "stateMutability": "nonpayable",
      "type": "constructor"
    },
    {
      "inputs": [],
      "name": "getTotalLikes",
      "outputs": [
        {
          "internalType": "uint256",
          "name": "",
          "type": "uint256"
        }
      ],
      "stateMutability": "view",
      "type": "function"
    },
    {
      "inputs": [],
      "name": "like",
      "outputs": [],
      "stateMutability": "nonpayable",
      "type": "function"
    }
  ],
  "bytecode": "0x608060405234801561001057600080fd5b506100596040518060400160405280601a81526020017f5468652043727970746f20507572676520506f7274616c203a2900000000000081525061005e60201b6101081760201c565b6101e1565b6100fa81604051602401610072919061015f565b6040516020818303038152906040527f41304fac000000000000000000000000000000000000000000000000000000007bffffffffffffffffffffffffffffffffffffffffffffffffffffffff19166020820180517bffffffffffffffffffffffffffffffffffffffffffffffffffffffff83818316178352505050506100fd60201b60201c565b50565b60008151905060006a636f6e736f6c652e6c6f679050602083016000808483855afa5050505050565b600061013182610181565b61013b818561018c565b935061014b81856020860161019d565b610154816101d0565b840191505092915050565b600060208201905081810360008301526101798184610126565b905092915050565b600081519050919050565b600082825260208201905092915050565b60005b838110156101bb5780820151818401526020810190506101a0565b838111156101ca576000848401525b50505050565b6000601f19601f8301169050919050565b61054d806101f06000396000f3fe608060405234801561001057600080fd5b50600436106100365760003560e01c8063104b79181461003b578063a523b88a14610059575b600080fd5b610043610063565b60405161005091906103db565b60405180910390f35b6100616100ae565b005b60006100a66040518060400160405280601781526020017f5765206861766520256420746f74616c206c696b6573210000000000000000008152506000546101a1565b600054905090565b60016000808282546100c09190610412565b925050819055506101066040518060400160405280601481526020017f25732068617320676976656e2061206c696b65210000000000000000000000008152503361023d565b565b61019e8160405160240161011c9190610359565b6040516020818303038152906040527f41304fac000000000000000000000000000000000000000000000000000000007bffffffffffffffffffffffffffffffffffffffffffffffffffffffff19166020820180517bffffffffffffffffffffffffffffffffffffffffffffffffffffffff83818316178352505050506102d9565b50565b61023982826040516024016101b79291906103ab565b6040516020818303038152906040527f9710a9d0000000000000000000000000000000000000000000000000000000007bffffffffffffffffffffffffffffffffffffffffffffffffffffffff19166020820180517bffffffffffffffffffffffffffffffffffffffffffffffffffffffff83818316178352505050506102d9565b5050565b6102d5828260405160240161025392919061037b565b6040516020818303038152906040527f319af333000000000000000000000000000000000000000000000000000000007bffffffffffffffffffffffffffffffffffffffffffffffffffffffff19166020820180517bffffffffffffffffffffffffffffffffffffffffffffffffffffffff83818316178352505050506102d9565b5050565b60008151905060006a636f6e736f6c652e6c6f679050602083016000808483855afa5050505050565b61030b81610468565b82525050565b600061031c826103f6565b6103268185610401565b93506103368185602086016104a4565b61033f81610506565b840191505092915050565b6103538161049a565b82525050565b600060208201905081810360008301526103738184610311565b905092915050565b600060408201905081810360008301526103958185610311565b90506103a46020830184610302565b9392505050565b600060408201905081810360008301526103c58185610311565b90506103d4602083018461034a565b9392505050565b60006020820190506103f0600083018461034a565b92915050565b600081519050919050565b600082825260208201905092915050565b600061041d8261049a565b91506104288361049a565b9250827fffffffffffffffffffffffffffffffffffffffffffffffffffffffffffffffff0382111561045d5761045c6104d7565b5b828201905092915050565b60006104738261047a565b9050919050565b600073ffffffffffffffffffffffffffffffffffffffff82169050919050565b6000819050919050565b60005b838110156104c25780820151818401526020810190506104a7565b838111156104d1576000848401525b50505050565b7f4e487b7100000000000000000000000000000000000000000000000000000000600052601160045260246000fd5b6000601f19601f830116905091905056fea2646970667358221220d1a0724435135f37ee1dcb27999bd7d5f32a00dc7009693230d801a81bfeca9764736f6c63430008040033",
  "linkReferences": {},
  "deployedLinkReferences": {}
}