{
  "_format": "hh-sol-artifact-1",
  "contractName": "TheCryptoPurgePortal",
  "sourceName": "contracts/Portal.sol",
  "abi": [
    {
      "inputs": [],
      "stateMutability": "payable",
      "type": "constructor"
    },
    {
      "anonymous": false,
      "inputs": [
        {
          "indexed": true,
          "internalType": "address",
          "name": "from",
          "type": "address"
        },
        {
          "indexed": false,
          "internalType": "uint256",
          "name": "timestamp",
          "type": "uint256"
        },
        {
          "indexed": false,
          "internalType": "string",
          "name": "message",
          "type": "string"
        }
      ],
      "name": "NewMessage",
      "type": "event"
    },
    {
      "anonymous": false,
      "inputs": [
        {
          "indexed": true,
          "internalType": "address",
          "name": "owner",
          "type": "address"
        },
        {
          "indexed": false,
          "internalType": "uint256",
          "name": "prizeAmount",
          "type": "uint256"
        }
      ],
      "name": "WinPrize",
      "type": "event"
    },
    {
      "inputs": [],
      "name": "feelingLucky",
      "outputs": [],
      "stateMutability": "nonpayable",
      "type": "function"
    },
    {
      "inputs": [],
      "name": "getAllMessages",
      "outputs": [
        {
          "components": [
            {
              "internalType": "address",
              "name": "user",
              "type": "address"
            },
            {
              "internalType": "string",
              "name": "message",
              "type": "string"
            },
            {
              "internalType": "uint256",
              "name": "timestamp",
              "type": "uint256"
            }
          ],
          "internalType": "struct TheCryptoPurgePortal.Message[]",
          "name": "",
          "type": "tuple[]"
        }
      ],
      "stateMutability": "view",
      "type": "function"
    },
    {
      "inputs": [],
      "name": "getTotalLikes",
      "outputs": [
        {
          "internalType": "uint256",
          "name": "",
          "type": "uint256"
        }
      ],
      "stateMutability": "view",
      "type": "function"
    },
    {
      "inputs": [
        {
          "internalType": "address",
          "name": "",
          "type": "address"
        }
      ],
      "name": "lastFeelingLuckyAt",
      "outputs": [
        {
          "internalType": "uint256",
          "name": "",
          "type": "uint256"
        }
      ],
      "stateMutability": "view",
      "type": "function"
    },
    {
      "inputs": [],
      "name": "like",
      "outputs": [],
      "stateMutability": "nonpayable",
      "type": "function"
    },
    {
      "inputs": [
        {
          "internalType": "string",
          "name": "message",
          "type": "string"
        }
      ],
      "name": "sendMessage",
      "outputs": [],
      "stateMutability": "nonpayable",
      "type": "function"
    }
  ],
  "bytecode": "0x60806040526000600255620000196200006a60201b60201c565b620000646040518060400160405280601a81526020017f5468652043727970746f20507572676520506f7274616c203a290000000000008152506200009d60201b620007241760201c565b6200032e565b606460025442446200007d9190620001ea565b620000899190620001ea565b62000095919062000287565b600281905550565b6200013d81604051602401620000b49190620001aa565b6040516020818303038152906040527f41304fac000000000000000000000000000000000000000000000000000000007bffffffffffffffffffffffffffffffffffffffffffffffffffffffff19166020820180517bffffffffffffffffffffffffffffffffffffffffffffffffffffffff83818316178352505050506200014060201b60201c565b50565b60008151905060006a636f6e736f6c652e6c6f679050602083016000808483855afa5050505050565b60006200017682620001ce565b620001828185620001d9565b93506200019481856020860162000251565b6200019f816200031d565b840191505092915050565b60006020820190508181036000830152620001c6818462000169565b905092915050565b600081519050919050565b600082825260208201905092915050565b6000620001f78262000247565b9150620002048362000247565b9250827fffffffffffffffffffffffffffffffffffffffffffffffffffffffffffffffff038211156200023c576200023b620002bf565b5b828201905092915050565b6000819050919050565b60005b838110156200027157808201518184015260208101905062000254565b8381111562000281576000848401525b50505050565b6000620002948262000247565b9150620002a18362000247565b925082620002b457620002b3620002ee565b5b828206905092915050565b7f4e487b7100000000000000000000000000000000000000000000000000000000600052601160045260246000fd5b7f4e487b7100000000000000000000000000000000000000000000000000000000600052601260045260246000fd5b6000601f19601f8301169050919050565b611362806200033e6000396000f3fe608060405234801561001057600080fd5b50600436106100625760003560e01c8063104b7918146100675780631766f10a14610085578063469c81101461008f57806353f5e380146100ab5780635f7c2b9a146100c9578063a523b88a146100f9575b600080fd5b61006f610103565b60405161007c9190610ede565b60405180910390f35b61008d61014e565b005b6100a960048036038101906100a49190610b33565b610442565b005b6100b3610561565b6040516100c09190610d9c565b60405180910390f35b6100e360048036038101906100de9190610b0a565b6106b2565b6040516100f09190610ede565b60405180910390f35b6101016106ca565b005b60006101466040518060400160405280601781526020017f5765206861766520256420746f74616c206c696b6573210000000000000000008152506000546107bd565b600054905090565b42603c600360003373ffffffffffffffffffffffffffffffffffffffff1673ffffffffffffffffffffffffffffffffffffffff1681526020019081526020016000205461019b9190610ff0565b106101db576040517f08c379a00000000000000000000000000000000000000000000000000000000081526004016101d290610ebe565b60405180910390fd5b42600360003373ffffffffffffffffffffffffffffffffffffffff1673ffffffffffffffffffffffffffffffffffffffff16815260200190815260200160002081905550610227610859565b6102686040518060400160405280601281526020017f546865206e6577207365656420697320257300000000000000000000000000008152506002546107bd565b603260025411610401576000655af3107a40009050478111156102c0576040517f08c379a00000000000000000000000000000000000000000000000000000000081526004016102b790610e7e565b60405180910390fd5b60003373ffffffffffffffffffffffffffffffffffffffff16826040516102e690610d87565b60006040518083038185875af1925050503d8060008114610323576040519150601f19603f3d011682016040523d82523d6000602084013e610328565b606091505b505090508061036c576040517f08c379a000000000000000000000000000000000000000000000000000000000815260040161036390610e9e565b60405180910390fd5b3373ffffffffffffffffffffffffffffffffffffffff167f7fb6e4f83fa5f779ecc33d38c454391e94e3ef4d67ac8fd450ae11c7c7f65382836040516103b29190610ede565b60405180910390a26103fa6040518060400160405280601081526020017f257320776f6e20256420657468657221000000000000000000000000000000008152503384610886565b5050610440565b61043f6040518060400160405280601781526020017f476f6f64206c75636b206e6578742074696d6521203a29000000000000000000815250610724565b5b565b600160405180606001604052803373ffffffffffffffffffffffffffffffffffffffff16815260200183815260200142815250908060018154018082558091505060019003906000526020600020906003020160009091909190915060008201518160000160006101000a81548173ffffffffffffffffffffffffffffffffffffffff021916908373ffffffffffffffffffffffffffffffffffffffff16021790555060208201518160010190805190602001906105019291906109ea565b506040820151816002015550503373ffffffffffffffffffffffffffffffffffffffff167f0ff94fec3112de81726d79117e091c7c9d47da8a38c73e8cec7ee350a61898a64283604051610556929190610ef9565b60405180910390a250565b60606001805480602002602001604051908101604052809291908181526020016000905b828210156106a957838290600052602060002090600302016040518060600160405290816000820160009054906101000a900473ffffffffffffffffffffffffffffffffffffffff1673ffffffffffffffffffffffffffffffffffffffff1673ffffffffffffffffffffffffffffffffffffffff16815260200160018201805461060e906110c4565b80601f016020809104026020016040519081016040528092919081815260200182805461063a906110c4565b80156106875780601f1061065c57610100808354040283529160200191610687565b820191906000526020600020905b81548152906001019060200180831161066a57829003601f168201915b5050505050815260200160028201548152505081526020019060010190610585565b50505050905090565b60036020528060005260406000206000915090505481565b60016000808282546106dc9190610ff0565b925050819055506107226040518060400160405280601481526020017f25732068617320676976656e2061206c696b652100000000000000000000000081525033610925565b565b6107ba816040516024016107389190610dbe565b6040516020818303038152906040527f41304fac000000000000000000000000000000000000000000000000000000007bffffffffffffffffffffffffffffffffffffffffffffffffffffffff19166020820180517bffffffffffffffffffffffffffffffffffffffffffffffffffffffff83818316178352505050506109c1565b50565b61085582826040516024016107d3929190610e4e565b6040516020818303038152906040527f9710a9d0000000000000000000000000000000000000000000000000000000007bffffffffffffffffffffffffffffffffffffffffffffffffffffffff19166020820180517bffffffffffffffffffffffffffffffffffffffffffffffffffffffff83818316178352505050506109c1565b5050565b6064600254424461086a9190610ff0565b6108749190610ff0565b61087e9190611127565b600281905550565b61092083838360405160240161089e93929190610e10565b6040516020818303038152906040527f07c81217000000000000000000000000000000000000000000000000000000007bffffffffffffffffffffffffffffffffffffffffffffffffffffffff19166020820180517bffffffffffffffffffffffffffffffffffffffffffffffffffffffff83818316178352505050506109c1565b505050565b6109bd828260405160240161093b929190610de0565b6040516020818303038152906040527f319af333000000000000000000000000000000000000000000000000000000007bffffffffffffffffffffffffffffffffffffffffffffffffffffffff19166020820180517bffffffffffffffffffffffffffffffffffffffffffffffffffffffff83818316178352505050506109c1565b5050565b60008151905060006a636f6e736f6c652e6c6f679050602083016000808483855afa5050505050565b8280546109f6906110c4565b90600052602060002090601f016020900481019282610a185760008555610a5f565b82601f10610a3157805160ff1916838001178555610a5f565b82800160010185558215610a5f579182015b82811115610a5e578251825591602001919060010190610a43565b5b509050610a6c9190610a70565b5090565b5b80821115610a89576000816000905550600101610a71565b5090565b6000610aa0610a9b84610f4e565b610f29565b905082815260208101848484011115610ab857600080fd5b610ac3848285611082565b509392505050565b600081359050610ada81611315565b92915050565b600082601f830112610af157600080fd5b8135610b01848260208601610a8d565b91505092915050565b600060208284031215610b1c57600080fd5b6000610b2a84828501610acb565b91505092915050565b600060208284031215610b4557600080fd5b600082013567ffffffffffffffff811115610b5f57600080fd5b610b6b84828501610ae0565b91505092915050565b6000610b808383610d19565b905092915050565b610b9181611046565b82525050565b610ba081611046565b82525050565b6000610bb182610f8f565b610bbb8185610fb2565b935083602082028501610bcd85610f7f565b8060005b85811015610c095784840389528151610bea8582610b74565b9450610bf583610fa5565b925060208a01995050600181019050610bd1565b50829750879550505050505092915050565b6000610c2682610f9a565b610c308185610fce565b9350610c40818560208601611091565b610c4981611214565b840191505092915050565b6000610c5f82610f9a565b610c698185610fdf565b9350610c79818560208601611091565b610c8281611214565b840191505092915050565b6000610c9a603483610fdf565b9150610ca582611225565b604082019050919050565b6000610cbd602783610fdf565b9150610cc882611274565b604082019050919050565b6000610ce0600083610fc3565b9150610ceb826112c3565b600082019050919050565b6000610d03602383610fdf565b9150610d0e826112c6565b604082019050919050565b6000606083016000830151610d316000860182610b88565b5060208301518482036020860152610d498282610c1b565b9150506040830151610d5e6040860182610d69565b508091505092915050565b610d7281611078565b82525050565b610d8181611078565b82525050565b6000610d9282610cd3565b9150819050919050565b60006020820190508181036000830152610db68184610ba6565b905092915050565b60006020820190508181036000830152610dd88184610c54565b905092915050565b60006040820190508181036000830152610dfa8185610c54565b9050610e096020830184610b97565b9392505050565b60006060820190508181036000830152610e2a8186610c54565b9050610e396020830185610b97565b610e466040830184610d78565b949350505050565b60006040820190508181036000830152610e688185610c54565b9050610e776020830184610d78565b9392505050565b60006020820190508181036000830152610e9781610c8d565b9050919050565b60006020820190508181036000830152610eb781610cb0565b9050919050565b60006020820190508181036000830152610ed781610cf6565b9050919050565b6000602082019050610ef36000830184610d78565b92915050565b6000604082019050610f0e6000830185610d78565b8181036020830152610f208184610c54565b90509392505050565b6000610f33610f44565b9050610f3f82826110f6565b919050565b6000604051905090565b600067ffffffffffffffff821115610f6957610f686111e5565b5b610f7282611214565b9050602081019050919050565b6000819050602082019050919050565b600081519050919050565b600081519050919050565b6000602082019050919050565b600082825260208201905092915050565b600081905092915050565b600082825260208201905092915050565b600082825260208201905092915050565b6000610ffb82611078565b915061100683611078565b9250827fffffffffffffffffffffffffffffffffffffffffffffffffffffffffffffffff0382111561103b5761103a611158565b5b828201905092915050565b600061105182611058565b9050919050565b600073ffffffffffffffffffffffffffffffffffffffff82169050919050565b6000819050919050565b82818337600083830152505050565b60005b838110156110af578082015181840152602081019050611094565b838111156110be576000848401525b50505050565b600060028204905060018216806110dc57607f821691505b602082108114156110f0576110ef6111b6565b5b50919050565b6110ff82611214565b810181811067ffffffffffffffff8211171561111e5761111d6111e5565b5b80604052505050565b600061113282611078565b915061113d83611078565b92508261114d5761114c611187565b5b828206905092915050565b7f4e487b7100000000000000000000000000000000000000000000000000000000600052601160045260246000fd5b7f4e487b7100000000000000000000000000000000000000000000000000000000600052601260045260246000fd5b7f4e487b7100000000000000000000000000000000000000000000000000000000600052602260045260246000fd5b7f4e487b7100000000000000000000000000000000000000000000000000000000600052604160045260246000fd5b6000601f19601f8301169050919050565b7f547279696e6720746f207769746864726177206d6f7265206d6f6e657920746860008201527f616e2074686520636f6e7472616374206861732e000000000000000000000000602082015250565b7f4661696c656420746f207769746864726177206d6f6e65792066726f6d20636f60008201527f6e74726163742e00000000000000000000000000000000000000000000000000602082015250565b50565b7f576169742031206d696e75746573206265666f726520747279696e672061676160008201527f696e2e0000000000000000000000000000000000000000000000000000000000602082015250565b61131e81611046565b811461132957600080fd5b5056fea26469706673582212206636a17ba2d2af38085f854c96eef2b6b8e751d4b1c764c4a5b715e0ace684e564736f6c63430008040033",
  "linkReferences": {},
  "deployedLinkReferences": {}
}