{
  "_format": "hh-sol-artifact-1",
  "contractName": "TheCryptoPurgePortal",
  "sourceName": "contracts/Portal.sol",
  "abi": [
    {
      "inputs": [],
      "stateMutability": "nonpayable",
      "type": "constructor"
    },
    {
      "anonymous": false,
      "inputs": [
        {
          "indexed": true,
          "internalType": "address",
          "name": "from",
          "type": "address"
        },
        {
          "indexed": false,
          "internalType": "uint256",
          "name": "timestamp",
          "type": "uint256"
        },
        {
          "indexed": false,
          "internalType": "string",
          "name": "message",
          "type": "string"
        }
      ],
      "name": "NewMessage",
      "type": "event"
    },
    {
      "inputs": [],
      "name": "getAllMessages",
      "outputs": [
        {
          "components": [
            {
              "internalType": "address",
              "name": "user",
              "type": "address"
            },
            {
              "internalType": "string",
              "name": "message",
              "type": "string"
            },
            {
              "internalType": "uint256",
              "name": "timestamp",
              "type": "uint256"
            }
          ],
          "internalType": "struct TheCryptoPurgePortal.Message[]",
          "name": "",
          "type": "tuple[]"
        }
      ],
      "stateMutability": "view",
      "type": "function"
    },
    {
      "inputs": [],
      "name": "getTotalLikes",
      "outputs": [
        {
          "internalType": "uint256",
          "name": "",
          "type": "uint256"
        }
      ],
      "stateMutability": "view",
      "type": "function"
    },
    {
      "inputs": [],
      "name": "like",
      "outputs": [],
      "stateMutability": "nonpayable",
      "type": "function"
    },
    {
      "inputs": [
        {
          "internalType": "string",
          "name": "message",
          "type": "string"
        }
      ],
      "name": "sendMessage",
      "outputs": [],
      "stateMutability": "nonpayable",
      "type": "function"
    }
  ],
  "bytecode": "0x60806040523480156200001157600080fd5b506200005d6040518060400160405280601a81526020017f5468652043727970746f20507572676520506f7274616c203a290000000000008152506200006360201b620003c81760201c565b620001f7565b62000103816040516024016200007a919062000170565b6040516020818303038152906040527f41304fac000000000000000000000000000000000000000000000000000000007bffffffffffffffffffffffffffffffffffffffffffffffffffffffff19166020820180517bffffffffffffffffffffffffffffffffffffffffffffffffffffffff83818316178352505050506200010660201b60201c565b50565b60008151905060006a636f6e736f6c652e6c6f679050602083016000808483855afa5050505050565b60006200013c8262000194565b6200014881856200019f565b93506200015a818560208601620001b0565b6200016581620001e6565b840191505092915050565b600060208201905081810360008301526200018c81846200012f565b905092915050565b600081519050919050565b600082825260208201905092915050565b60005b83811015620001d0578082015181840152602081019050620001b3565b83811115620001e0576000848401525b50505050565b6000601f19601f8301169050919050565b610c4b80620002076000396000f3fe608060405234801561001057600080fd5b506004361061004c5760003560e01c8063104b791814610051578063469c81101461006f57806353f5e3801461008b578063a523b88a146100a9575b600080fd5b6100596100b3565b6040516100669190610939565b60405180910390f35b610089600480360381019061008491906106cd565b6100fe565b005b61009361021d565b6040516100a09190610895565b60405180910390f35b6100b161036e565b005b60006100f66040518060400160405280601781526020017f5765206861766520256420746f74616c206c696b657321000000000000000000815250600054610461565b600054905090565b600160405180606001604052803373ffffffffffffffffffffffffffffffffffffffff16815260200183815260200142815250908060018154018082558091505060019003906000526020600020906003020160009091909190915060008201518160000160006101000a81548173ffffffffffffffffffffffffffffffffffffffff021916908373ffffffffffffffffffffffffffffffffffffffff16021790555060208201518160010190805190602001906101bd9291906105c2565b506040820151816002015550503373ffffffffffffffffffffffffffffffffffffffff167f0ff94fec3112de81726d79117e091c7c9d47da8a38c73e8cec7ee350a61898a64283604051610212929190610954565b60405180910390a250565b60606001805480602002602001604051908101604052809291908181526020016000905b8282101561036557838290600052602060002090600302016040518060600160405290816000820160009054906101000a900473ffffffffffffffffffffffffffffffffffffffff1673ffffffffffffffffffffffffffffffffffffffff1673ffffffffffffffffffffffffffffffffffffffff1681526020016001820180546102ca90610b14565b80601f01602080910402602001604051908101604052809291908181526020018280546102f690610b14565b80156103435780601f1061031857610100808354040283529160200191610343565b820191906000526020600020905b81548152906001019060200180831161032657829003601f168201915b5050505050815260200160028201548152505081526020019060010190610241565b50505050905090565b60016000808282546103809190610a40565b925050819055506103c66040518060400160405280601481526020017f25732068617320676976656e2061206c696b6521000000000000000000000000815250336104fd565b565b61045e816040516024016103dc91906108b7565b6040516020818303038152906040527f41304fac000000000000000000000000000000000000000000000000000000007bffffffffffffffffffffffffffffffffffffffffffffffffffffffff19166020820180517bffffffffffffffffffffffffffffffffffffffffffffffffffffffff8381831617835250505050610599565b50565b6104f98282604051602401610477929190610909565b6040516020818303038152906040527f9710a9d0000000000000000000000000000000000000000000000000000000007bffffffffffffffffffffffffffffffffffffffffffffffffffffffff19166020820180517bffffffffffffffffffffffffffffffffffffffffffffffffffffffff8381831617835250505050610599565b5050565b61059582826040516024016105139291906108d9565b6040516020818303038152906040527f319af333000000000000000000000000000000000000000000000000000000007bffffffffffffffffffffffffffffffffffffffffffffffffffffffff19166020820180517bffffffffffffffffffffffffffffffffffffffffffffffffffffffff8381831617835250505050610599565b5050565b60008151905060006a636f6e736f6c652e6c6f679050602083016000808483855afa5050505050565b8280546105ce90610b14565b90600052602060002090601f0160209004810192826105f05760008555610637565b82601f1061060957805160ff1916838001178555610637565b82800160010185558215610637579182015b8281111561063657825182559160200191906001019061061b565b5b5090506106449190610648565b5090565b5b80821115610661576000816000905550600101610649565b5090565b6000610678610673846109a9565b610984565b90508281526020810184848401111561069057600080fd5b61069b848285610ad2565b509392505050565b600082601f8301126106b457600080fd5b81356106c4848260208601610665565b91505092915050565b6000602082840312156106df57600080fd5b600082013567ffffffffffffffff8111156106f957600080fd5b610705848285016106a3565b91505092915050565b600061071a8383610827565b905092915050565b61072b81610a96565b82525050565b61073a81610a96565b82525050565b600061074b826109ea565b6107558185610a0d565b935083602082028501610767856109da565b8060005b858110156107a35784840389528151610784858261070e565b945061078f83610a00565b925060208a0199505060018101905061076b565b50829750879550505050505092915050565b60006107c0826109f5565b6107ca8185610a1e565b93506107da818560208601610ae1565b6107e381610c04565b840191505092915050565b60006107f9826109f5565b6108038185610a2f565b9350610813818560208601610ae1565b61081c81610c04565b840191505092915050565b600060608301600083015161083f6000860182610722565b506020830151848203602086015261085782826107b5565b915050604083015161086c6040860182610877565b508091505092915050565b61088081610ac8565b82525050565b61088f81610ac8565b82525050565b600060208201905081810360008301526108af8184610740565b905092915050565b600060208201905081810360008301526108d181846107ee565b905092915050565b600060408201905081810360008301526108f381856107ee565b90506109026020830184610731565b9392505050565b6000604082019050818103600083015261092381856107ee565b90506109326020830184610886565b9392505050565b600060208201905061094e6000830184610886565b92915050565b60006040820190506109696000830185610886565b818103602083015261097b81846107ee565b90509392505050565b600061098e61099f565b905061099a8282610b46565b919050565b6000604051905090565b600067ffffffffffffffff8211156109c4576109c3610bd5565b5b6109cd82610c04565b9050602081019050919050565b6000819050602082019050919050565b600081519050919050565b600081519050919050565b6000602082019050919050565b600082825260208201905092915050565b600082825260208201905092915050565b600082825260208201905092915050565b6000610a4b82610ac8565b9150610a5683610ac8565b9250827fffffffffffffffffffffffffffffffffffffffffffffffffffffffffffffffff03821115610a8b57610a8a610b77565b5b828201905092915050565b6000610aa182610aa8565b9050919050565b600073ffffffffffffffffffffffffffffffffffffffff82169050919050565b6000819050919050565b82818337600083830152505050565b60005b83811015610aff578082015181840152602081019050610ae4565b83811115610b0e576000848401525b50505050565b60006002820490506001821680610b2c57607f821691505b60208210811415610b4057610b3f610ba6565b5b50919050565b610b4f82610c04565b810181811067ffffffffffffffff82111715610b6e57610b6d610bd5565b5b80604052505050565b7f4e487b7100000000000000000000000000000000000000000000000000000000600052601160045260246000fd5b7f4e487b7100000000000000000000000000000000000000000000000000000000600052602260045260246000fd5b7f4e487b7100000000000000000000000000000000000000000000000000000000600052604160045260246000fd5b6000601f19601f830116905091905056fea26469706673582212201ce0b79a6dcbb83b69455a5f77541425156e932f84ba2d7bbf55d29964588b4364736f6c63430008040033",
  "linkReferences": {},
  "deployedLinkReferences": {}
}